{
  "_format": "hh-sol-artifact-1",
  "contractName": "RandomIpfsNft",
  "sourceName": "contracts/RandomIpfsNft.sol",
  "abi": [
    {
      "inputs": [
        {
          "internalType": "address",
          "name": "vrfCoordinatorV2",
          "type": "address"
        },
        {
          "internalType": "uint64",
          "name": "subscriptionId",
          "type": "uint64"
        },
        {
          "internalType": "bytes32",
          "name": "gasLane",
          "type": "bytes32"
        },
        {
          "internalType": "uint32",
          "name": "callbackGasLimit",
          "type": "uint32"
        },
        {
          "internalType": "string[3]",
          "name": "dogTokenUris",
          "type": "string[3]"
        },
        {
          "internalType": "uint256",
          "name": "mintFee",
          "type": "uint256"
        }
      ],
      "stateMutability": "nonpayable",
      "type": "constructor"
    },
    {
      "inputs": [
        {
          "internalType": "address",
          "name": "have",
          "type": "address"
        },
        {
          "internalType": "address",
          "name": "want",
          "type": "address"
        }
      ],
      "name": "OnlyCoordinatorCanFulfill",
      "type": "error"
    },
    {
      "inputs": [],
      "name": "RandomIpfsNft__NeedMoreETHSent",
      "type": "error"
    },
    {
      "inputs": [],
      "name": "RandomIpfsNft__RangeOutOfBounds",
      "type": "error"
    },
    {
      "inputs": [],
      "name": "RandomIpfsNft__TransferFailed",
      "type": "error"
    },
    {
      "anonymous": false,
      "inputs": [
        {
          "indexed": true,
          "internalType": "address",
          "name": "owner",
          "type": "address"
        },
        {
          "indexed": true,
          "internalType": "address",
          "name": "approved",
          "type": "address"
        },
        {
          "indexed": true,
          "internalType": "uint256",
          "name": "tokenId",
          "type": "uint256"
        }
      ],
      "name": "Approval",
      "type": "event"
    },
    {
      "anonymous": false,
      "inputs": [
        {
          "indexed": true,
          "internalType": "address",
          "name": "owner",
          "type": "address"
        },
        {
          "indexed": true,
          "internalType": "address",
          "name": "operator",
          "type": "address"
        },
        {
          "indexed": false,
          "internalType": "bool",
          "name": "approved",
          "type": "bool"
        }
      ],
      "name": "ApprovalForAll",
      "type": "event"
    },
    {
      "anonymous": false,
      "inputs": [
        {
          "indexed": false,
          "internalType": "enum RandomIpfsNft.Breed",
          "name": "dogBreed",
          "type": "uint8"
        },
        {
          "indexed": false,
          "internalType": "address",
          "name": "minter",
          "type": "address"
        }
      ],
      "name": "NftMinter",
      "type": "event"
    },
    {
      "anonymous": false,
      "inputs": [
        {
          "indexed": true,
          "internalType": "uint256",
          "name": "requestId",
          "type": "uint256"
        },
        {
          "indexed": false,
          "internalType": "address",
          "name": "requester",
          "type": "address"
        }
      ],
      "name": "NftRequested",
      "type": "event"
    },
    {
      "anonymous": false,
      "inputs": [
        {
          "indexed": true,
          "internalType": "address",
          "name": "previousOwner",
          "type": "address"
        },
        {
          "indexed": true,
          "internalType": "address",
          "name": "newOwner",
          "type": "address"
        }
      ],
      "name": "OwnershipTransferred",
      "type": "event"
    },
    {
      "anonymous": false,
      "inputs": [
        {
          "indexed": true,
          "internalType": "address",
          "name": "from",
          "type": "address"
        },
        {
          "indexed": true,
          "internalType": "address",
          "name": "to",
          "type": "address"
        },
        {
          "indexed": true,
          "internalType": "uint256",
          "name": "tokenId",
          "type": "uint256"
        }
      ],
      "name": "Transfer",
      "type": "event"
    },
    {
      "inputs": [
        {
          "internalType": "address",
          "name": "to",
          "type": "address"
        },
        {
          "internalType": "uint256",
          "name": "tokenId",
          "type": "uint256"
        }
      ],
      "name": "approve",
      "outputs": [],
      "stateMutability": "nonpayable",
      "type": "function"
    },
    {
      "inputs": [
        {
          "internalType": "address",
          "name": "owner",
          "type": "address"
        }
      ],
      "name": "balanceOf",
      "outputs": [
        {
          "internalType": "uint256",
          "name": "",
          "type": "uint256"
        }
      ],
      "stateMutability": "view",
      "type": "function"
    },
    {
      "inputs": [
        {
          "internalType": "uint256",
          "name": "tokenId",
          "type": "uint256"
        }
      ],
      "name": "getApproved",
      "outputs": [
        {
          "internalType": "address",
          "name": "",
          "type": "address"
        }
      ],
      "stateMutability": "view",
      "type": "function"
    },
    {
      "inputs": [
        {
          "internalType": "uint256",
          "name": "moddedRng",
          "type": "uint256"
        }
      ],
      "name": "getBreedFromModdedRng",
      "outputs": [
        {
          "internalType": "enum RandomIpfsNft.Breed",
          "name": "",
          "type": "uint8"
        }
      ],
      "stateMutability": "pure",
      "type": "function"
    },
    {
      "inputs": [],
      "name": "getChanceArray",
      "outputs": [
        {
          "internalType": "uint256[3]",
          "name": "",
          "type": "uint256[3]"
        }
      ],
      "stateMutability": "pure",
      "type": "function"
    },
    {
      "inputs": [
        {
          "internalType": "uint256",
          "name": "index",
          "type": "uint256"
        }
      ],
      "name": "getDogTokenUris",
      "outputs": [
        {
          "internalType": "string",
          "name": "",
          "type": "string"
        }
      ],
      "stateMutability": "view",
      "type": "function"
    },
    {
      "inputs": [],
      "name": "getMintFee",
      "outputs": [
        {
          "internalType": "uint256",
          "name": "",
          "type": "uint256"
        }
      ],
      "stateMutability": "view",
      "type": "function"
    },
    {
      "inputs": [],
      "name": "getTokenCount",
      "outputs": [
        {
          "internalType": "uint256",
          "name": "",
          "type": "uint256"
        }
      ],
      "stateMutability": "view",
      "type": "function"
    },
    {
      "inputs": [
        {
          "internalType": "address",
          "name": "owner",
          "type": "address"
        },
        {
          "internalType": "address",
          "name": "operator",
          "type": "address"
        }
      ],
      "name": "isApprovedForAll",
      "outputs": [
        {
          "internalType": "bool",
          "name": "",
          "type": "bool"
        }
      ],
      "stateMutability": "view",
      "type": "function"
    },
    {
      "inputs": [],
      "name": "name",
      "outputs": [
        {
          "internalType": "string",
          "name": "",
          "type": "string"
        }
      ],
      "stateMutability": "view",
      "type": "function"
    },
    {
      "inputs": [],
      "name": "owner",
      "outputs": [
        {
          "internalType": "address",
          "name": "",
          "type": "address"
        }
      ],
      "stateMutability": "view",
      "type": "function"
    },
    {
      "inputs": [
        {
          "internalType": "uint256",
          "name": "tokenId",
          "type": "uint256"
        }
      ],
      "name": "ownerOf",
      "outputs": [
        {
          "internalType": "address",
          "name": "",
          "type": "address"
        }
      ],
      "stateMutability": "view",
      "type": "function"
    },
    {
      "inputs": [
        {
          "internalType": "uint256",
          "name": "requestId",
          "type": "uint256"
        },
        {
          "internalType": "uint256[]",
          "name": "randomWords",
          "type": "uint256[]"
        }
      ],
      "name": "rawFulfillRandomWords",
      "outputs": [],
      "stateMutability": "nonpayable",
      "type": "function"
    },
    {
      "inputs": [],
      "name": "renounceOwnership",
      "outputs": [],
      "stateMutability": "nonpayable",
      "type": "function"
    },
    {
      "inputs": [],
      "name": "requestNft",
      "outputs": [
        {
          "internalType": "uint256",
          "name": "requestId",
          "type": "uint256"
        }
      ],
      "stateMutability": "payable",
      "type": "function"
    },
    {
      "inputs": [
        {
          "internalType": "uint256",
          "name": "",
          "type": "uint256"
        }
      ],
      "name": "s_requestIdToSender",
      "outputs": [
        {
          "internalType": "address",
          "name": "",
          "type": "address"
        }
      ],
      "stateMutability": "view",
      "type": "function"
    },
    {
      "inputs": [],
      "name": "s_tokenCounter",
      "outputs": [
        {
          "internalType": "uint256",
          "name": "",
          "type": "uint256"
        }
      ],
      "stateMutability": "view",
      "type": "function"
    },
    {
      "inputs": [
        {
          "internalType": "address",
          "name": "from",
          "type": "address"
        },
        {
          "internalType": "address",
          "name": "to",
          "type": "address"
        },
        {
          "internalType": "uint256",
          "name": "tokenId",
          "type": "uint256"
        }
      ],
      "name": "safeTransferFrom",
      "outputs": [],
      "stateMutability": "nonpayable",
      "type": "function"
    },
    {
      "inputs": [
        {
          "internalType": "address",
          "name": "from",
          "type": "address"
        },
        {
          "internalType": "address",
          "name": "to",
          "type": "address"
        },
        {
          "internalType": "uint256",
          "name": "tokenId",
          "type": "uint256"
        },
        {
          "internalType": "bytes",
          "name": "data",
          "type": "bytes"
        }
      ],
      "name": "safeTransferFrom",
      "outputs": [],
      "stateMutability": "nonpayable",
      "type": "function"
    },
    {
      "inputs": [
        {
          "internalType": "address",
          "name": "operator",
          "type": "address"
        },
        {
          "internalType": "bool",
          "name": "approved",
          "type": "bool"
        }
      ],
      "name": "setApprovalForAll",
      "outputs": [],
      "stateMutability": "nonpayable",
      "type": "function"
    },
    {
      "inputs": [
        {
          "internalType": "bytes4",
          "name": "interfaceId",
          "type": "bytes4"
        }
      ],
      "name": "supportsInterface",
      "outputs": [
        {
          "internalType": "bool",
          "name": "",
          "type": "bool"
        }
      ],
      "stateMutability": "view",
      "type": "function"
    },
    {
      "inputs": [],
      "name": "symbol",
      "outputs": [
        {
          "internalType": "string",
          "name": "",
          "type": "string"
        }
      ],
      "stateMutability": "view",
      "type": "function"
    },
    {
      "inputs": [
        {
          "internalType": "uint256",
          "name": "tokenId",
          "type": "uint256"
        }
      ],
      "name": "tokenURI",
      "outputs": [
        {
          "internalType": "string",
          "name": "",
          "type": "string"
        }
      ],
      "stateMutability": "view",
      "type": "function"
    },
    {
      "inputs": [
        {
          "internalType": "address",
          "name": "from",
          "type": "address"
        },
        {
          "internalType": "address",
          "name": "to",
          "type": "address"
        },
        {
          "internalType": "uint256",
          "name": "tokenId",
          "type": "uint256"
        }
      ],
      "name": "transferFrom",
      "outputs": [],
      "stateMutability": "nonpayable",
      "type": "function"
    },
    {
      "inputs": [
        {
          "internalType": "address",
          "name": "newOwner",
          "type": "address"
        }
      ],
      "name": "transferOwnership",
      "outputs": [],
      "stateMutability": "nonpayable",
      "type": "function"
    },
    {
      "inputs": [],
      "name": "withdraw",
      "outputs": [],
      "stateMutability": "nonpayable",
      "type": "function"
    }
  ],
  "bytecode": "0x6101206040523480156200001257600080fd5b50604051620042c6380380620042c6833981810160405281019062000038919062000809565b6040518060400160405280600f81526020017f52616e646f6d2049504653204e465400000000000000000000000000000000008152506040518060400160405280600381526020017f52494e0000000000000000000000000000000000000000000000000000000000815250878073ffffffffffffffffffffffffffffffffffffffff1660808173ffffffffffffffffffffffffffffffffffffffff1660601b81525050508160009080519060200190620000f59291906200029c565b5080600190805190602001906200010e9291906200029c565b5050506200013162000125620001ce60201b60201c565b620001d660201b60201c565b8573ffffffffffffffffffffffffffffffffffffffff1660a08173ffffffffffffffffffffffffffffffffffffffff1660601b815250508467ffffffffffffffff1660c08167ffffffffffffffff1660c01b815250508360e081815250508263ffffffff166101008163ffffffff1660e01b8152505081600a906003620001ba9291906200032d565b5080600b8190555050505050505062000929565b600033905090565b6000600760009054906101000a900473ffffffffffffffffffffffffffffffffffffffff16905081600760006101000a81548173ffffffffffffffffffffffffffffffffffffffff021916908373ffffffffffffffffffffffffffffffffffffffff1602179055508173ffffffffffffffffffffffffffffffffffffffff168173ffffffffffffffffffffffffffffffffffffffff167f8be0079c531659141344cd1fd0a4f28419497f9722a3daafe3b4186f6b6457e060405160405180910390a35050565b828054620002aa90620008f3565b90600052602060002090601f016020900481019282620002ce57600085556200031a565b82601f10620002e957805160ff19168380011785556200031a565b828001600101855582156200031a579182015b8281111562000319578251825591602001919060010190620002fc565b5b50905062000329919062000394565b5090565b82805482825590600052602060002090810192821562000381579160200282015b82811115620003805782518290805190602001906200036f9291906200029c565b50916020019190600101906200034e565b5b509050620003909190620003b3565b5090565b5b80821115620003af57600081600090555060010162000395565b5090565b5b80821115620003d75760008181620003cd9190620003db565b50600101620003b4565b5090565b508054620003e990620008f3565b6000825580601f10620003fd57506200041e565b601f0160209004906000526020600020908101906200041d919062000394565b5b50565b6000604051905090565b600080fd5b600080fd5b600073ffffffffffffffffffffffffffffffffffffffff82169050919050565b6000620004628262000435565b9050919050565b620004748162000455565b81146200048057600080fd5b50565b600081519050620004948162000469565b92915050565b600067ffffffffffffffff82169050919050565b620004b9816200049a565b8114620004c557600080fd5b50565b600081519050620004d981620004ae565b92915050565b6000819050919050565b620004f481620004df565b81146200050057600080fd5b50565b6000815190506200051481620004e9565b92915050565b600063ffffffff82169050919050565b62000535816200051a565b81146200054157600080fd5b50565b60008151905062000555816200052a565b92915050565b600080fd5b6000601f19601f8301169050919050565b7f4e487b7100000000000000000000000000000000000000000000000000000000600052604160045260246000fd5b620005ab8262000560565b810181811067ffffffffffffffff82111715620005cd57620005cc62000571565b5b80604052505050565b6000620005e262000421565b9050620005f08282620005a0565b919050565b600067ffffffffffffffff82111562000613576200061262000571565b5b602082029050919050565b600080fd5b600080fd5b600067ffffffffffffffff82111562000646576200064562000571565b5b620006518262000560565b9050602081019050919050565b60005b838110156200067e57808201518184015260208101905062000661565b838111156200068e576000848401525b50505050565b6000620006ab620006a58462000628565b620005d6565b905082815260208101848484011115620006ca57620006c962000623565b5b620006d78482856200065e565b509392505050565b600082601f830112620006f757620006f66200055b565b5b81516200070984826020860162000694565b91505092915050565b6000620007296200072384620005f5565b620005d6565b905080602084028301858111156200074657620007456200061e565b5b835b818110156200079457805167ffffffffffffffff8111156200076f576200076e6200055b565b5b8086016200077e8982620006df565b8552602085019450505060208101905062000748565b5050509392505050565b600082601f830112620007b657620007b56200055b565b5b6003620007c584828562000712565b91505092915050565b6000819050919050565b620007e381620007ce565b8114620007ef57600080fd5b50565b6000815190506200080381620007d8565b92915050565b60008060008060008060c087890312156200082957620008286200042b565b5b60006200083989828a0162000483565b96505060206200084c89828a01620004c8565b95505060406200085f89828a0162000503565b94505060606200087289828a0162000544565b935050608087015167ffffffffffffffff81111562000896576200089562000430565b5b620008a489828a016200079e565b92505060a0620008b789828a01620007f2565b9150509295509295509295565b7f4e487b7100000000000000000000000000000000000000000000000000000000600052602260045260246000fd5b600060028204905060018216806200090c57607f821691505b60208210811415620009235762000922620008c4565b5b50919050565b60805160601c60a05160601c60c05160c01c60e0516101005160e01c61394562000981600039600061102301526000610fdf0152600061100001526000610fa301526000818161091d015261097101526139456000f3fe6080604052600436106101815760003560e01c8063715018a6116100d1578063a36f573b1161008a578063b88d4fde11610064578063b88d4fde14610577578063c87b56dd146105a0578063e985e9c5146105dd578063f2fde38b1461061a57610181565b8063a36f573b146104df578063a51cccf31461051c578063aa1524911461055957610181565b8063715018a6146103f357806378a895671461040a5780637a5caab3146104355780638da5cb5b1461046057806395d89b411461048b578063a22cb465146104b657610181565b806323b872dd1161013e57806342842e0e1161011857806342842e0e146103255780635dacf5f41461034e5780636352211e1461037957806370a08231146103b657610181565b806323b872dd146102a85780633af25975146102d15780633ccfd60b1461030e57610181565b806301ffc9a71461018657806306fdde03146101c3578063081812fc146101ee578063095ea7b31461022b5780630b21a83b146102545780631fe543e31461027f575b600080fd5b34801561019257600080fd5b506101ad60048036038101906101a891906124f3565b610643565b6040516101ba919061253b565b60405180910390f35b3480156101cf57600080fd5b506101d8610725565b6040516101e591906125ef565b60405180910390f35b3480156101fa57600080fd5b5061021560048036038101906102109190612647565b6107b7565b60405161022291906126b5565b60405180910390f35b34801561023757600080fd5b50610252600480360381019061024d91906126fc565b6107fd565b005b34801561026057600080fd5b50610269610915565b604051610276919061274b565b60405180910390f35b34801561028b57600080fd5b506102a660048036038101906102a191906128ae565b61091b565b005b3480156102b457600080fd5b506102cf60048036038101906102ca919061290a565b6109db565b005b3480156102dd57600080fd5b506102f860048036038101906102f39190612647565b610a3b565b60405161030591906125ef565b60405180910390f35b34801561031a57600080fd5b50610323610aeb565b005b34801561033157600080fd5b5061034c6004803603810190610347919061290a565b610b9f565b005b34801561035a57600080fd5b50610363610bbf565b6040516103709190612a08565b60405180910390f35b34801561038557600080fd5b506103a0600480360381019061039b9190612647565b610bea565b6040516103ad91906126b5565b60405180910390f35b3480156103c257600080fd5b506103dd60048036038101906103d89190612a23565b610c9c565b6040516103ea919061274b565b60405180910390f35b3480156103ff57600080fd5b50610408610d54565b005b34801561041657600080fd5b5061041f610d68565b60405161042c919061274b565b60405180910390f35b34801561044157600080fd5b5061044a610d72565b604051610457919061274b565b60405180910390f35b34801561046c57600080fd5b50610475610d7c565b60405161048291906126b5565b60405180910390f35b34801561049757600080fd5b506104a0610da6565b6040516104ad91906125ef565b60405180910390f35b3480156104c257600080fd5b506104dd60048036038101906104d89190612a7c565b610e38565b005b3480156104eb57600080fd5b5061050660048036038101906105019190612647565b610e4e565b60405161051391906126b5565b60405180910390f35b34801561052857600080fd5b50610543600480360381019061053e9190612647565b610e81565b6040516105509190612b33565b60405180910390f35b610561610f63565b60405161056e919061274b565b60405180910390f35b34801561058357600080fd5b5061059e60048036038101906105999190612c03565b611145565b005b3480156105ac57600080fd5b506105c760048036038101906105c29190612647565b6111a7565b6040516105d491906125ef565b60405180910390f35b3480156105e957600080fd5b5061060460048036038101906105ff9190612c86565b6112ba565b604051610611919061253b565b60405180910390f35b34801561062657600080fd5b50610641600480360381019061063c9190612a23565b61134e565b005b60007f80ac58cd000000000000000000000000000000000000000000000000000000007bffffffffffffffffffffffffffffffffffffffffffffffffffffffff1916827bffffffffffffffffffffffffffffffffffffffffffffffffffffffff1916148061070e57507f5b5e139f000000000000000000000000000000000000000000000000000000007bffffffffffffffffffffffffffffffffffffffffffffffffffffffff1916827bffffffffffffffffffffffffffffffffffffffffffffffffffffffff1916145b8061071e575061071d826113d2565b5b9050919050565b60606000805461073490612cf5565b80601f016020809104026020016040519081016040528092919081815260200182805461076090612cf5565b80156107ad5780601f10610782576101008083540402835291602001916107ad565b820191906000526020600020905b81548152906001019060200180831161079057829003601f168201915b5050505050905090565b60006107c28261143c565b6004600083815260200190815260200160002060009054906101000a900473ffffffffffffffffffffffffffffffffffffffff169050919050565b600061080882610bea565b90508073ffffffffffffffffffffffffffffffffffffffff168373ffffffffffffffffffffffffffffffffffffffff161415610879576040517f08c379a000000000000000000000000000000000000000000000000000000000815260040161087090612d99565b60405180910390fd5b8073ffffffffffffffffffffffffffffffffffffffff16610898611487565b73ffffffffffffffffffffffffffffffffffffffff1614806108c757506108c6816108c1611487565b6112ba565b5b610906576040517f08c379a00000000000000000000000000000000000000000000000000000000081526004016108fd90612e2b565b60405180910390fd5b610910838361148f565b505050565b60095481565b7f000000000000000000000000000000000000000000000000000000000000000073ffffffffffffffffffffffffffffffffffffffff163373ffffffffffffffffffffffffffffffffffffffff16146109cd57337f00000000000000000000000000000000000000000000000000000000000000006040517f1cf993f40000000000000000000000000000000000000000000000000000000081526004016109c4929190612e4b565b60405180910390fd5b6109d78282611548565b5050565b6109ec6109e6611487565b826116e2565b610a2b576040517f08c379a0000000000000000000000000000000000000000000000000000000008152600401610a2290612ee6565b60405180910390fd5b610a36838383611777565b505050565b6060600a8281548110610a5157610a50612f06565b5b906000526020600020018054610a6690612cf5565b80601f0160208091040260200160405190810160405280929190818152602001828054610a9290612cf5565b8015610adf5780601f10610ab457610100808354040283529160200191610adf565b820191906000526020600020905b815481529060010190602001808311610ac257829003601f168201915b50505050509050919050565b610af36119de565b600047905060003373ffffffffffffffffffffffffffffffffffffffff1682604051610b1e90612f66565b60006040518083038185875af1925050503d8060008114610b5b576040519150601f19603f3d011682016040523d82523d6000602084013e610b60565b606091505b5050905080610b9b576040517fca7e25b700000000000000000000000000000000000000000000000000000000815260040160405180910390fd5b5050565b610bba83838360405180602001604052806000815250611145565b505050565b610bc76123c2565b6040518060600160405280600a8152602001601e81526020016064815250905090565b6000806002600084815260200190815260200160002060009054906101000a900473ffffffffffffffffffffffffffffffffffffffff169050600073ffffffffffffffffffffffffffffffffffffffff168173ffffffffffffffffffffffffffffffffffffffff161415610c93576040517f08c379a0000000000000000000000000000000000000000000000000000000008152600401610c8a90612fc7565b60405180910390fd5b80915050919050565b60008073ffffffffffffffffffffffffffffffffffffffff168273ffffffffffffffffffffffffffffffffffffffff161415610d0d576040517f08c379a0000000000000000000000000000000000000000000000000000000008152600401610d0490613059565b60405180910390fd5b600360008373ffffffffffffffffffffffffffffffffffffffff1673ffffffffffffffffffffffffffffffffffffffff168152602001908152602001600020549050919050565b610d5c6119de565b610d666000611a5c565b565b6000600954905090565b6000600b54905090565b6000600760009054906101000a900473ffffffffffffffffffffffffffffffffffffffff16905090565b606060018054610db590612cf5565b80601f0160208091040260200160405190810160405280929190818152602001828054610de190612cf5565b8015610e2e5780601f10610e0357610100808354040283529160200191610e2e565b820191906000526020600020905b815481529060010190602001808311610e1157829003601f168201915b5050505050905090565b610e4a610e43611487565b8383611b22565b5050565b60086020528060005260406000206000915054906101000a900473ffffffffffffffffffffffffffffffffffffffff1681565b600080600090506000610e92610bbf565b905060005b6003811015610f2b57828510158015610ed15750818160038110610ebe57610ebd612f06565b5b602002015183610ece91906130a8565b85105b15610ef357806002811115610ee957610ee8612abc565b5b9350505050610f5e565b818160038110610f0657610f05612f06565b5b602002015183610f1691906130a8565b92508080610f23906130fe565b915050610e97565b506040517f12806c9d00000000000000000000000000000000000000000000000000000000815260040160405180910390fd5b919050565b6000600b54341015610fa1576040517fb90f491000000000000000000000000000000000000000000000000000000000815260040160405180910390fd5b7f000000000000000000000000000000000000000000000000000000000000000073ffffffffffffffffffffffffffffffffffffffff16635d3b1d307f00000000000000000000000000000000000000000000000000000000000000007f000000000000000000000000000000000000000000000000000000000000000060037f000000000000000000000000000000000000000000000000000000000000000060016040518663ffffffff1660e01b81526004016110649594939291906131bf565b602060405180830381600087803b15801561107e57600080fd5b505af1158015611092573d6000803e3d6000fd5b505050506040513d601f19601f820116820180604052508101906110b69190613227565b9050336008600083815260200190815260200160002060006101000a81548173ffffffffffffffffffffffffffffffffffffffff021916908373ffffffffffffffffffffffffffffffffffffffff160217905550807ff873236e6cc0ecc5be1a9a35c95ee5b8d1ac4cc7bfef0cc5060391d6cc98e26b3360405161113a91906126b5565b60405180910390a290565b611156611150611487565b836116e2565b611195576040517f08c379a000000000000000000000000000000000000000000000000000000000815260040161118c90612ee6565b60405180910390fd5b6111a184848484611c8f565b50505050565b60606111b28261143c565b60006006600084815260200190815260200160002080546111d290612cf5565b80601f01602080910402602001604051908101604052809291908181526020018280546111fe90612cf5565b801561124b5780601f106112205761010080835404028352916020019161124b565b820191906000526020600020905b81548152906001019060200180831161122e57829003601f168201915b50505050509050600061125c611ceb565b90506000815114156112725781925050506112b5565b6000825111156112a757808260405160200161128f929190613290565b604051602081830303815290604052925050506112b5565b6112b084611d02565b925050505b919050565b6000600560008473ffffffffffffffffffffffffffffffffffffffff1673ffffffffffffffffffffffffffffffffffffffff16815260200190815260200160002060008373ffffffffffffffffffffffffffffffffffffffff1673ffffffffffffffffffffffffffffffffffffffff16815260200190815260200160002060009054906101000a900460ff16905092915050565b6113566119de565b600073ffffffffffffffffffffffffffffffffffffffff168173ffffffffffffffffffffffffffffffffffffffff1614156113c6576040517f08c379a00000000000000000000000000000000000000000000000000000000081526004016113bd90613326565b60405180910390fd5b6113cf81611a5c565b50565b60007f01ffc9a7000000000000000000000000000000000000000000000000000000007bffffffffffffffffffffffffffffffffffffffffffffffffffffffff1916827bffffffffffffffffffffffffffffffffffffffffffffffffffffffff1916149050919050565b61144581611d6a565b611484576040517f08c379a000000000000000000000000000000000000000000000000000000000815260040161147b90612fc7565b60405180910390fd5b50565b600033905090565b816004600083815260200190815260200160002060006101000a81548173ffffffffffffffffffffffffffffffffffffffff021916908373ffffffffffffffffffffffffffffffffffffffff160217905550808273ffffffffffffffffffffffffffffffffffffffff1661150283610bea565b73ffffffffffffffffffffffffffffffffffffffff167f8c5be1e5ebec7d5bd14f71427d1e84f3dd0314c0f7b2291e5b200ac8c7c3b92560405160405180910390a45050565b60006008600084815260200190815260200160002060009054906101000a900473ffffffffffffffffffffffffffffffffffffffff16905060006009549050600060648460008151811061159f5761159e612f06565b5b60200260200101516115b19190613375565b905060006115be82610e81565b905060016009546115cf91906130a8565b6009819055506115df8484611dd6565b6116a183600a8360028111156115f8576115f7612abc565b5b8154811061160957611608612f06565b5b90600052602060002001805461161e90612cf5565b80601f016020809104026020016040519081016040528092919081815260200182805461164a90612cf5565b80156116975780601f1061166c57610100808354040283529160200191611697565b820191906000526020600020905b81548152906001019060200180831161167a57829003601f168201915b5050505050611df4565b7f38a9cbeb26293f11a597adc2577d7e249ddb2b32892cf7f170e4fcc8f1b2ee0581856040516116d29291906133a6565b60405180910390a1505050505050565b6000806116ee83610bea565b90508073ffffffffffffffffffffffffffffffffffffffff168473ffffffffffffffffffffffffffffffffffffffff161480611730575061172f81856112ba565b5b8061176e57508373ffffffffffffffffffffffffffffffffffffffff16611756846107b7565b73ffffffffffffffffffffffffffffffffffffffff16145b91505092915050565b8273ffffffffffffffffffffffffffffffffffffffff1661179782610bea565b73ffffffffffffffffffffffffffffffffffffffff16146117ed576040517f08c379a00000000000000000000000000000000000000000000000000000000081526004016117e490613441565b60405180910390fd5b600073ffffffffffffffffffffffffffffffffffffffff168273ffffffffffffffffffffffffffffffffffffffff16141561185d576040517f08c379a0000000000000000000000000000000000000000000000000000000008152600401611854906134d3565b60405180910390fd5b611868838383611e68565b61187360008261148f565b6001600360008573ffffffffffffffffffffffffffffffffffffffff1673ffffffffffffffffffffffffffffffffffffffff16815260200190815260200160002060008282546118c391906134f3565b925050819055506001600360008473ffffffffffffffffffffffffffffffffffffffff1673ffffffffffffffffffffffffffffffffffffffff168152602001908152602001600020600082825461191a91906130a8565b92505081905550816002600083815260200190815260200160002060006101000a81548173ffffffffffffffffffffffffffffffffffffffff021916908373ffffffffffffffffffffffffffffffffffffffff160217905550808273ffffffffffffffffffffffffffffffffffffffff168473ffffffffffffffffffffffffffffffffffffffff167fddf252ad1be2c89b69c2b068fc378daa952ba7f163c4a11628f55a4df523b3ef60405160405180910390a46119d9838383611e6d565b505050565b6119e6611487565b73ffffffffffffffffffffffffffffffffffffffff16611a04610d7c565b73ffffffffffffffffffffffffffffffffffffffff1614611a5a576040517f08c379a0000000000000000000000000000000000000000000000000000000008152600401611a5190613573565b60405180910390fd5b565b6000600760009054906101000a900473ffffffffffffffffffffffffffffffffffffffff16905081600760006101000a81548173ffffffffffffffffffffffffffffffffffffffff021916908373ffffffffffffffffffffffffffffffffffffffff1602179055508173ffffffffffffffffffffffffffffffffffffffff168173ffffffffffffffffffffffffffffffffffffffff167f8be0079c531659141344cd1fd0a4f28419497f9722a3daafe3b4186f6b6457e060405160405180910390a35050565b8173ffffffffffffffffffffffffffffffffffffffff168373ffffffffffffffffffffffffffffffffffffffff161415611b91576040517f08c379a0000000000000000000000000000000000000000000000000000000008152600401611b88906135df565b60405180910390fd5b80600560008573ffffffffffffffffffffffffffffffffffffffff1673ffffffffffffffffffffffffffffffffffffffff16815260200190815260200160002060008473ffffffffffffffffffffffffffffffffffffffff1673ffffffffffffffffffffffffffffffffffffffff16815260200190815260200160002060006101000a81548160ff0219169083151502179055508173ffffffffffffffffffffffffffffffffffffffff168373ffffffffffffffffffffffffffffffffffffffff167f17307eab39ab6107e8899845ad3d59bd9653f200f220920489ca2b5937696c3183604051611c82919061253b565b60405180910390a3505050565b611c9a848484611777565b611ca684848484611e72565b611ce5576040517f08c379a0000000000000000000000000000000000000000000000000000000008152600401611cdc90613671565b60405180910390fd5b50505050565b606060405180602001604052806000815250905090565b6060611d0d8261143c565b6000611d17611ceb565b90506000815111611d375760405180602001604052806000815250611d62565b80611d4184612009565b604051602001611d52929190613290565b6040516020818303038152906040525b915050919050565b60008073ffffffffffffffffffffffffffffffffffffffff166002600084815260200190815260200160002060009054906101000a900473ffffffffffffffffffffffffffffffffffffffff1673ffffffffffffffffffffffffffffffffffffffff1614159050919050565b611df082826040518060200160405280600081525061216a565b5050565b611dfd82611d6a565b611e3c576040517f08c379a0000000000000000000000000000000000000000000000000000000008152600401611e3390613703565b60405180910390fd5b80600660008481526020019081526020016000209080519060200190611e639291906123e4565b505050565b505050565b505050565b6000611e938473ffffffffffffffffffffffffffffffffffffffff166121c5565b15611ffc578373ffffffffffffffffffffffffffffffffffffffff1663150b7a02611ebc611487565b8786866040518563ffffffff1660e01b8152600401611ede9493929190613778565b602060405180830381600087803b158015611ef857600080fd5b505af1925050508015611f2957506040513d601f19601f82011682018060405250810190611f2691906137d9565b60015b611fac573d8060008114611f59576040519150601f19603f3d011682016040523d82523d6000602084013e611f5e565b606091505b50600081511415611fa4576040517f08c379a0000000000000000000000000000000000000000000000000000000008152600401611f9b90613671565b60405180910390fd5b805181602001fd5b63150b7a0260e01b7bffffffffffffffffffffffffffffffffffffffffffffffffffffffff1916817bffffffffffffffffffffffffffffffffffffffffffffffffffffffff191614915050612001565b600190505b949350505050565b60606000821415612051576040518060400160405280600181526020017f30000000000000000000000000000000000000000000000000000000000000008152509050612165565b600082905060005b6000821461208357808061206c906130fe565b915050600a8261207c9190613806565b9150612059565b60008167ffffffffffffffff81111561209f5761209e61276b565b5b6040519080825280601f01601f1916602001820160405280156120d15781602001600182028036833780820191505090505b5090505b6000851461215e576001826120ea91906134f3565b9150600a856120f99190613375565b603061210591906130a8565b60f81b81838151811061211b5761211a612f06565b5b60200101907effffffffffffffffffffffffffffffffffffffffffffffffffffffffffffff1916908160001a905350600a856121579190613806565b94506120d5565b8093505050505b919050565b61217483836121e8565b6121816000848484611e72565b6121c0576040517f08c379a00000000000000000000000000000000000000000000000000000000081526004016121b790613671565b60405180910390fd5b505050565b6000808273ffffffffffffffffffffffffffffffffffffffff163b119050919050565b600073ffffffffffffffffffffffffffffffffffffffff168273ffffffffffffffffffffffffffffffffffffffff161415612258576040517f08c379a000000000000000000000000000000000000000000000000000000000815260040161224f90613883565b60405180910390fd5b61226181611d6a565b156122a1576040517f08c379a0000000000000000000000000000000000000000000000000000000008152600401612298906138ef565b60405180910390fd5b6122ad60008383611e68565b6001600360008473ffffffffffffffffffffffffffffffffffffffff1673ffffffffffffffffffffffffffffffffffffffff16815260200190815260200160002060008282546122fd91906130a8565b92505081905550816002600083815260200190815260200160002060006101000a81548173ffffffffffffffffffffffffffffffffffffffff021916908373ffffffffffffffffffffffffffffffffffffffff160217905550808273ffffffffffffffffffffffffffffffffffffffff16600073ffffffffffffffffffffffffffffffffffffffff167fddf252ad1be2c89b69c2b068fc378daa952ba7f163c4a11628f55a4df523b3ef60405160405180910390a46123be60008383611e6d565b5050565b6040518060600160405280600390602082028036833780820191505090505090565b8280546123f090612cf5565b90600052602060002090601f0160209004810192826124125760008555612459565b82601f1061242b57805160ff1916838001178555612459565b82800160010185558215612459579182015b8281111561245857825182559160200191906001019061243d565b5b509050612466919061246a565b5090565b5b8082111561248357600081600090555060010161246b565b5090565b6000604051905090565b600080fd5b600080fd5b60007fffffffff0000000000000000000000000000000000000000000000000000000082169050919050565b6124d08161249b565b81146124db57600080fd5b50565b6000813590506124ed816124c7565b92915050565b60006020828403121561250957612508612491565b5b6000612517848285016124de565b91505092915050565b60008115159050919050565b61253581612520565b82525050565b6000602082019050612550600083018461252c565b92915050565b600081519050919050565b600082825260208201905092915050565b60005b83811015612590578082015181840152602081019050612575565b8381111561259f576000848401525b50505050565b6000601f19601f8301169050919050565b60006125c182612556565b6125cb8185612561565b93506125db818560208601612572565b6125e4816125a5565b840191505092915050565b6000602082019050818103600083015261260981846125b6565b905092915050565b6000819050919050565b61262481612611565b811461262f57600080fd5b50565b6000813590506126418161261b565b92915050565b60006020828403121561265d5761265c612491565b5b600061266b84828501612632565b91505092915050565b600073ffffffffffffffffffffffffffffffffffffffff82169050919050565b600061269f82612674565b9050919050565b6126af81612694565b82525050565b60006020820190506126ca60008301846126a6565b92915050565b6126d981612694565b81146126e457600080fd5b50565b6000813590506126f6816126d0565b92915050565b6000806040838503121561271357612712612491565b5b6000612721858286016126e7565b925050602061273285828601612632565b9150509250929050565b61274581612611565b82525050565b6000602082019050612760600083018461273c565b92915050565b600080fd5b7f4e487b7100000000000000000000000000000000000000000000000000000000600052604160045260246000fd5b6127a3826125a5565b810181811067ffffffffffffffff821117156127c2576127c161276b565b5b80604052505050565b60006127d5612487565b90506127e1828261279a565b919050565b600067ffffffffffffffff8211156128015761280061276b565b5b602082029050602081019050919050565b600080fd5b600061282a612825846127e6565b6127cb565b9050808382526020820190506020840283018581111561284d5761284c612812565b5b835b8181101561287657806128628882612632565b84526020840193505060208101905061284f565b5050509392505050565b600082601f83011261289557612894612766565b5b81356128a5848260208601612817565b91505092915050565b600080604083850312156128c5576128c4612491565b5b60006128d385828601612632565b925050602083013567ffffffffffffffff8111156128f4576128f3612496565b5b61290085828601612880565b9150509250929050565b60008060006060848603121561292357612922612491565b5b6000612931868287016126e7565b9350506020612942868287016126e7565b925050604061295386828701612632565b9150509250925092565b600060039050919050565b600081905092915050565b6000819050919050565b61298681612611565b82525050565b6000612998838361297d565b60208301905092915050565b6000602082019050919050565b6129ba8161295d565b6129c48184612968565b92506129cf82612973565b8060005b83811015612a005781516129e7878261298c565b96506129f2836129a4565b9250506001810190506129d3565b505050505050565b6000606082019050612a1d60008301846129b1565b92915050565b600060208284031215612a3957612a38612491565b5b6000612a47848285016126e7565b91505092915050565b612a5981612520565b8114612a6457600080fd5b50565b600081359050612a7681612a50565b92915050565b60008060408385031215612a9357612a92612491565b5b6000612aa1858286016126e7565b9250506020612ab285828601612a67565b9150509250929050565b7f4e487b7100000000000000000000000000000000000000000000000000000000600052602160045260246000fd5b60038110612afc57612afb612abc565b5b50565b6000819050612b0d82612aeb565b919050565b6000612b1d82612aff565b9050919050565b612b2d81612b12565b82525050565b6000602082019050612b486000830184612b24565b92915050565b600080fd5b600067ffffffffffffffff821115612b6e57612b6d61276b565b5b612b77826125a5565b9050602081019050919050565b82818337600083830152505050565b6000612ba6612ba184612b53565b6127cb565b905082815260208101848484011115612bc257612bc1612b4e565b5b612bcd848285612b84565b509392505050565b600082601f830112612bea57612be9612766565b5b8135612bfa848260208601612b93565b91505092915050565b60008060008060808587031215612c1d57612c1c612491565b5b6000612c2b878288016126e7565b9450506020612c3c878288016126e7565b9350506040612c4d87828801612632565b925050606085013567ffffffffffffffff811115612c6e57612c6d612496565b5b612c7a87828801612bd5565b91505092959194509250565b60008060408385031215612c9d57612c9c612491565b5b6000612cab858286016126e7565b9250506020612cbc858286016126e7565b9150509250929050565b7f4e487b7100000000000000000000000000000000000000000000000000000000600052602260045260246000fd5b60006002820490506001821680612d0d57607f821691505b60208210811415612d2157612d20612cc6565b5b50919050565b7f4552433732313a20617070726f76616c20746f2063757272656e74206f776e6560008201527f7200000000000000000000000000000000000000000000000000000000000000602082015250565b6000612d83602183612561565b9150612d8e82612d27565b604082019050919050565b60006020820190508181036000830152612db281612d76565b9050919050565b7f4552433732313a20617070726f76652063616c6c6572206973206e6f7420746f60008201527f6b656e206f776e6572206e6f7220617070726f76656420666f7220616c6c0000602082015250565b6000612e15603e83612561565b9150612e2082612db9565b604082019050919050565b60006020820190508181036000830152612e4481612e08565b9050919050565b6000604082019050612e6060008301856126a6565b612e6d60208301846126a6565b9392505050565b7f4552433732313a2063616c6c6572206973206e6f7420746f6b656e206f776e6560008201527f72206e6f7220617070726f766564000000000000000000000000000000000000602082015250565b6000612ed0602e83612561565b9150612edb82612e74565b604082019050919050565b60006020820190508181036000830152612eff81612ec3565b9050919050565b7f4e487b7100000000000000000000000000000000000000000000000000000000600052603260045260246000fd5b600081905092915050565b50565b6000612f50600083612f35565b9150612f5b82612f40565b600082019050919050565b6000612f7182612f43565b9150819050919050565b7f4552433732313a20696e76616c696420746f6b656e2049440000000000000000600082015250565b6000612fb1601883612561565b9150612fbc82612f7b565b602082019050919050565b60006020820190508181036000830152612fe081612fa4565b9050919050565b7f4552433732313a2061646472657373207a65726f206973206e6f74206120766160008201527f6c6964206f776e65720000000000000000000000000000000000000000000000602082015250565b6000613043602983612561565b915061304e82612fe7565b604082019050919050565b6000602082019050818103600083015261307281613036565b9050919050565b7f4e487b7100000000000000000000000000000000000000000000000000000000600052601160045260246000fd5b60006130b382612611565b91506130be83612611565b9250827fffffffffffffffffffffffffffffffffffffffffffffffffffffffffffffffff038211156130f3576130f2613079565b5b828201905092915050565b600061310982612611565b91507fffffffffffffffffffffffffffffffffffffffffffffffffffffffffffffffff82141561313c5761313b613079565b5b600182019050919050565b6000819050919050565b61315a81613147565b82525050565b600067ffffffffffffffff82169050919050565b61317d81613160565b82525050565b600061ffff82169050919050565b61319a81613183565b82525050565b600063ffffffff82169050919050565b6131b9816131a0565b82525050565b600060a0820190506131d46000830188613151565b6131e16020830187613174565b6131ee6040830186613191565b6131fb60608301856131b0565b61320860808301846131b0565b9695505050505050565b6000815190506132218161261b565b92915050565b60006020828403121561323d5761323c612491565b5b600061324b84828501613212565b91505092915050565b600081905092915050565b600061326a82612556565b6132748185613254565b9350613284818560208601612572565b80840191505092915050565b600061329c828561325f565b91506132a8828461325f565b91508190509392505050565b7f4f776e61626c653a206e6577206f776e657220697320746865207a65726f206160008201527f6464726573730000000000000000000000000000000000000000000000000000602082015250565b6000613310602683612561565b915061331b826132b4565b604082019050919050565b6000602082019050818103600083015261333f81613303565b9050919050565b7f4e487b7100000000000000000000000000000000000000000000000000000000600052601260045260246000fd5b600061338082612611565b915061338b83612611565b92508261339b5761339a613346565b5b828206905092915050565b60006040820190506133bb6000830185612b24565b6133c860208301846126a6565b9392505050565b7f4552433732313a207472616e736665722066726f6d20696e636f72726563742060008201527f6f776e6572000000000000000000000000000000000000000000000000000000602082015250565b600061342b602583612561565b9150613436826133cf565b604082019050919050565b6000602082019050818103600083015261345a8161341e565b9050919050565b7f4552433732313a207472616e7366657220746f20746865207a65726f2061646460008201527f7265737300000000000000000000000000000000000000000000000000000000602082015250565b60006134bd602483612561565b91506134c882613461565b604082019050919050565b600060208201905081810360008301526134ec816134b0565b9050919050565b60006134fe82612611565b915061350983612611565b92508282101561351c5761351b613079565b5b828203905092915050565b7f4f776e61626c653a2063616c6c6572206973206e6f7420746865206f776e6572600082015250565b600061355d602083612561565b915061356882613527565b602082019050919050565b6000602082019050818103600083015261358c81613550565b9050919050565b7f4552433732313a20617070726f766520746f2063616c6c657200000000000000600082015250565b60006135c9601983612561565b91506135d482613593565b602082019050919050565b600060208201905081810360008301526135f8816135bc565b9050919050565b7f4552433732313a207472616e7366657220746f206e6f6e20455243373231526560008201527f63656976657220696d706c656d656e7465720000000000000000000000000000602082015250565b600061365b603283612561565b9150613666826135ff565b604082019050919050565b6000602082019050818103600083015261368a8161364e565b9050919050565b7f45524337323155524953746f726167653a2055524920736574206f66206e6f6e60008201527f6578697374656e7420746f6b656e000000000000000000000000000000000000602082015250565b60006136ed602e83612561565b91506136f882613691565b604082019050919050565b6000602082019050818103600083015261371c816136e0565b9050919050565b600081519050919050565b600082825260208201905092915050565b600061374a82613723565b613754818561372e565b9350613764818560208601612572565b61376d816125a5565b840191505092915050565b600060808201905061378d60008301876126a6565b61379a60208301866126a6565b6137a7604083018561273c565b81810360608301526137b9818461373f565b905095945050505050565b6000815190506137d3816124c7565b92915050565b6000602082840312156137ef576137ee612491565b5b60006137fd848285016137c4565b91505092915050565b600061381182612611565b915061381c83612611565b92508261382c5761382b613346565b5b828204905092915050565b7f4552433732313a206d696e7420746f20746865207a65726f2061646472657373600082015250565b600061386d602083612561565b915061387882613837565b602082019050919050565b6000602082019050818103600083015261389c81613860565b9050919050565b7f4552433732313a20746f6b656e20616c7265616479206d696e74656400000000600082015250565b60006138d9601c83612561565b91506138e4826138a3565b602082019050919050565b60006020820190508181036000830152613908816138cc565b905091905056fea2646970667358221220b564b7fbeea84e3c654e0a56a4d15b66a9dd5ab40122b136f9b7f49f05707e0d64736f6c63430008080033",
  "linkReferences": {},
  "deployedLinkReferences": {}
}